:1000000000008031492808007E1480318B1A0B1DB6
:100010000D288831A520803147280B1F1928210081
:10002000111E19282000111E19288731D52780316B
:1000300047280B1F25282100911E25282000911EEE
:1000400025288731EB27803147280B1F31282100D5
:10005000921D31282000921D312888318320803163
:1000600047280B1F3D282100911D3D282000911D90
:100070003D288831B320803147280B1F47282100B5
:10008000911C47282000911C472888318E207E1023
:10009000090080314B280130EF004630F801F901AA
:1000A000FA018400003085002330883188208031B7
:1000B000A0308400003085004430883188208031B1
:1000C000203084000130850047308831882080311D
:1000D0007E1020006B288A31032280318931A921CA
:1000E00080318931A4218031142580311F24803151
:1000F000122480312000EF008B170B1717214F308F
:100100002000C0002030C100B8308931AE218031DC
:1001100068302000B70020308B31A3238031683055
:100120002100E6002030D220803121004F08F3006A
:100130006730F400200057089F2080317F28F700A7
:100140004C0873060319AB287308031DAB28770806
:10015000CB0022000C1173082000CC004B08033E9A
:10016000F500003003180130F600770875067604B4
:10017000031DBC2822000C15CE208031003A031D3F
:10018000C42822000E11080003307702031CCB287C
:1001900022000E15080022000E11080020000C0E8F
:1001A00001390800E700660886008701010B07296E
:1001B0006608860081012000CD01CD0A0729323072
:1001C0002100D00020005330A201A20AA300633016
:1001D000A401A500D0304521CD0A08006308031D05
:1001E00008000630A2005330A3006330A401A5002C
:1001F000D0308B31E1238031EC286308031D0800E7
:10020000D030C300210067085C218031EC28200039
:100210004D08003A03191629013A0319DF28033A59
:100220000319EE28013A0319FD2816290800313078
:10023000A700083045258031452180312A08031D5B
:100240001E292C30A7000A304525803145218031F8
:100250002A08031D28292D30A700083045258031A4
:10026000452180312A08031D32292E30A700803015
:1002700045258031452180312A08031D3C2938302D
:10028000A7008030452580314529A6004818592906
:100290002608F3002208F4002408F6002308F500DD
:1002A000DA307F25DA30F3002508F40001308D3193
:1002B000602D25088E31002E2000C500063EB600B8
:1002C000430880218031C40045082C3E61258031DF
:1002D00045080E3EB6004308023E80218031C4002E
:1002E00045082D3E612580314508163EB60043087D
:1002F000043E80218031C40045082E3E612508005F
:10030000BE00C001BB013E0A860087010108BC0097
:10031000BD01BD00BC013E0886000108BC070318F2
:10032000BD0A9A30A7003930A8004030A9003D0826
:10033000A4003C08A300882280312308AA002408D6
:10034000AB002508AC00A32280312708B80028089C
:10035000B9002908BA003808F3003908F4003A084F
:10036000F500AA2480317408C2007308C100C21FBE
:10037000C829FF30BB01BB0AF300F4004208F600B5
:100380004108F500FF2480317408C2007308C100E1
:10039000BF014208803AB70080303702031DD229DE
:1003A00001304102031CF22920005A2580310A3015
:1003B000F300F4014208F6004108F5004F228031B5
:1003C0007308303E81000A30F300F4014208F60061
:1003D0004108F5000F2280317408C2007308C10083
:1003E000C00A022A20003F08031DFB295A2580313C
:1003F00030308100F0293F083607B7008600013011
:10040000870081010630BF0A3F02031CC9293B0B4C
:100410000D2A5A252D308100C00A40080800A1018C
:10042000F41F192AF309F409F30A0319F40AA101C4
:10043000A10AF61F222AF509F609F50A0319F60A98
:100440000130A106A201A301730874040319422A12
:10045000A001A00AF41B2F2AF335F40D292AA23596
:10046000A30D74087602031D372A73087502031C56
:100470003E2A7308F5027408F63B2214F436F30C96
:10048000A00B2F2A210803194A2AA209A309A20AAC
:100490000319A30A2308F4002208F3000800A101AD
:1004A000F61F592AF509F609F50A0319F60AA101FA
:1004B000A10AF41F602AF309F409F30A0319F40AE4
:1004C0007308740403197B2AA001A00AF41B6B2A89
:1004D000F335F40D652A74087602031D712A73083A
:1004E0007502031C772A7308F5027408F63BF4368C
:1004F000F30CA00B6B2A21080319832AF509F609CE
:10050000F50A0319F60A7608F4007508F3000800E6
:10051000A601A41F922AA309A409A30A0319A40AE5
:10052000A601A60A2308F3002408F4008E30F50182
:10053000F6002608F7006C247308A3007408A400D2
:100540007508A50008002708AD002808AE00290896
:10055000AF0003102E0D2F0DB0003008031DB12A7F
:100560007B2D2A08AD002B08AE002C08AF0003102D
:100570002E0D2F0DB5003508031DBF2A7B2D350824
:100580007B3EB0072908B5002C08B5068030B505BC
:10059000FF30A817AB17AA05AB050730AC01B101B6
:1005A000B201B301B400271CD72A6E258031A936C9
:1005B000A80CA70CAA35AB0DAC0DB40BD32A09308F
:1005C000B400271CE52A6E258031A936A80CA70C9B
:1005D000B336B20CB10CB40BE12A3108F300320887
:1005E000F4003308F5003008F6003508F7006C24F5
:1005F0007308A7007408A8007508A9000800AF01D7
:100600002708860087016F0881002F258031260882
:100610008100AF0AE72B282580311825803120255D
:100620008031182580318400013085000008810068
:100630002000AF0AF22B5325803118258031053E6A
:100640004E25803118258031043E8400000818258D
:100650008031033E8400000818258031023E132BB0
:1006600028258031182580311E3E2025803118250F
:1006700080311E3E132B2825803118258031203EE5
:100680002025803118258031203E132B28258031EC
:1006900018258031223E2025803118258031223EC8
:1006A000132B2825803118258031243E20258031C8
:1006B00018258031243E132B532580311825803195
:1006C000293E4E25803118258031283E84000008BF
:1006D00018258031273E8400000818258031263EE9
:1006E000132B28258031182580312A3E2025803182
:1006F000182580312A3E132B2508013A0319872B30
:10070000033A03198F2B013A0319A02BF22B24086B
:10071000F43A03190B2B013A03191B2BF22B240873
:10072000593A0319302B033A03193B2B013A0319A9
:10073000462BE63A0319512B033A03195C2BF22B93
:100740002408213A0319712BF22B282580318100CE
:100750002F25803181012F25803112248031172BE4
:100760002508013A0319B52BF22B2408903A0319F6
:10077000A52BF22B2808860001308700453FEF00AB
:10078000982580312000752580312808023E4E25AD
:10079000803181002F2580312808033E8400000825
:1007A00081002F2580312808043E84000008810044
:1007B0002F2580312808053E132B2508013A0319FF
:1007C000E22BF22B2408903A0319BA2BF22B2608BD
:1007D000033A0319B02B073A03197C2B023A031989
:1007E000DD2BF22B2708F300F4012F08F500F601AA
:1007F0008B31302380317408AE007308AD0075254D
:1008000080312D0881002F252E088100AF0A27088E
:10081000163E86002F0881002708173E86002F0805
:10082000810008000A3061248031F4007408031943
:100830001B2C740F1D2CF401F40A7408080020000E
:100840000130A001A101A201A3016124803135255D
:1008500080310230A00161248031352580310330A0
:10086000A00161248031352580310430A00161244C
:1008700080312000A00701300318A1070318A20748
:100880000318A30723082204210420040319532C6E
:10089000200F582C210A031D582C220A031D582C06
:1008A000230A031D582CA001A00AA101A201A30143
:1008B0002308F7002208F6002108F5002008F400BC
:1008C0000800F30023009100151395131514000080
:1008D000000023001308080076080319742C75081B
:1008E00074047304031D7C2CF301F401F50108006A
:1008F000F60AF536F40CF30CFE30750503198A2C54
:10090000782CF60AF30A0319F40A0319F50AF536E6
:10091000F40CF30CFF3075050319972C812C023071
:100920007602031C992CF603F335F40DF50DF41F34
:100930008F2C761CF413F6367608A200A101A001D4
:100940002008F3042108F4042208F5047708031DA5
:10095000F5170800672580310310210D220DA8002E
:100960002808031DB82CF301F401F501F601080075
:10097000672580311730A236A10CA00C890BBB2C47
:100980002008A300F417F5017308A4007408A5005B
:100990007508A6008E30A701A802A81FDB2C280826
:1009A000803A8F3E031CB32CA736A60CA50CA40CD2
:1009B000A80FD42CE82C183028020318B32C2808D0
:1009C0000319E82CA435A50DA60DA70DA803DF2C4F
:1009D00023080319F62CA409A509A609A709A40A46
:1009E0000319A50A0319A60A0319A70A2708F6007E
:1009F0002608F5002508F4002408F3000800A001EB
:100A0000A101731C072D7508A0077608A13DF535D7
:100A1000F60DF436F30C73087404031D012D210840
:100A2000F4002008F300080022000C150E15080041
:100A30008100AF0A2F082707AA00860029080800AE
:100A4000840001308500003FAB00013FAC0008008E
:100A50002F082707AA008600023087010800AF0A86
:100A60002F082707AA00860008002000A0070130F1
:100A70000318A1070318A2070318A3072208A3005D
:100A80002108A2002008A1000800A8000230A2004E
:100A90005330A3002A30A401A5002734840001307C
:100AA0008500000808002F082707AA0086000430E8
:100AB0008701080040083607B7008600013087002C
:100AC0000800860001308700440881000800730890
:100AD000A0007408A1007508A20008002A08B10748
:100AE0002B08B23D2C08B33D08002F082707AA00A9
:100AF000860087010800A701A801A9010800F700E6
:100B00007608A1007508A000A035A10D7708860021
:100B100087012008C03F2108C13F7708023E8600B8
:100B2000740881007708033E86007308810008007E
:100B3000F6000A3061248031760603190800760831
:100B4000F3000A30A32DF40091007308930095136D
:100B50001513151500308B1B0130F5008B13553024
:100B60009600AA30960095149518B42D1511750CA1
:100B7000031C8B1303188B1708000034C134813415
:100B800040340134C034803441340134C0348034C2
:100B900041340034C134813440340134C0348034B1
:100BA00041340034C134813440340034C1348134A0
:100BB00040340134C034803441340134C034803492
:100BC00041340034C134813440340034C134813480
:100BD00040340134C034803441340034C134813471
:100BE00040340134C034803441340134C034803462
:100BF00041340034C134813440340134C034803451
:100C000041340034C134813440340034C13481343F
:100C100040340134C034803441340034C134813430
:100C200040340134C034803441340134C034803421
:100C300041340034C134813440340034C13481340F
:100C400040340134C034803441340134C034803401
:100C500041340034C134813440340134C0348034F0
:100C600041340034C134813440340034C1348134DF
:100C700040340134C034803441340134C0348034D1
:100C800041340034C134813440340034C1348134BF
:100C900040340134C034803441340034C1348134B0
:100CA00040340134C034803441340134C0348034A1
:100CB00041340034C134813440340034C13481348F
:100CC00040340134C034803441340134C034803481
:100CD00041340034C134813440340134C034803470
:100CE00041340034C134813440340034C13481345F
:100CF00040340134C034803441340034C134813450
:100D000040340134C034803441340134C034803440
:100D100041340034C134813440340134C03480342F
:100D200041340034C134813440340034C13481341E
:100D300040340134C034803441340134C034803410
:100D400041340034C134813440340034C1348134FE
:100D500040340134C034803441340034C1348134EF
:100D600040340134C034803441340134C0348034E0
:100D700041340034C134813440340034C034C1348F
:100D80000134C33403340234C234C6340634073465
:100D9000C7340534C534C4340434CC340C340D3475
:100DA000CD340F34CF34CE340E340A34CA34CB347D
:100DB0000B34C93409340834C834D83418341934DD
:100DC000D9341B34DB34DA341A341E34DE34DF34E5
:100DD0001F34DD341D341C34DC341434D434D534A5
:100DE0001534D73417341634D634D234123413347D
:100DF000D3341134D134D0341034F034303431346D
:100E0000F1343334F334F23432343634F634F734E4
:100E10003734F53435343434F4343C34FC34FD3474
:100E20003D34FF343F343E34FE34FA343A343B34FC
:100E3000FB343934F934F83438342834E834E934BC
:100E40002934EB342B342A34EA34EE342E342F3464
:100E5000EF342D34ED34EC342C34E43424342534A4
:100E6000E5342734E734E63426342234E234E334FC
:100E70002334E13421342034E034A034603461344C
:100E8000A1346334A334A23462346634A634A73464
:100E90006734A53465346434A4346C34AC34AD3474
:100EA0006D34AF346F346E34AE34AA346A346B347C
:100EB000AB346934A934A83468347834B834B934DC
:100EC0007934BB347B347A34BA34BE347E347F34E4
:100ED000BF347D34BD34BC347C34B43474347534A4
:100EE000B5347734B734B63476347234B234B3347C
:100EF0007334B13471347034B0345034903491342C
:100F000051349334533452349234963456345734E3
:100F1000973455349534943454349C345C345D3473
:100F20009D345F349F349E345E345A349A349B34FB
:100F30005B349934593458349834883448344934BB
:100F400089344B348B348A344A344E348E348F3463
:100F50004F348D344D344C348C34443484348534A3
:100F600045348734473446348634823442344334FB
:100F7000833441348134803440348831C02888310E
:100F8000E02889310F2989312A298931712989314C
:100F90004629893155298931712989315A2989315F
:100FA00073298831E3288831FC2808306D02031842
:100FB000E82F5508B03E86008701010823009A00FB
:100FC0002000D50A083055020318D501ED0A0800A3
:100FD00021001112080023009D1CF02F1D121D1668
:100FE00020005308A03E86008701230019088100D5
:100FF0002000D30A103053020318D301D20A08008C
:10110000FF3FFF3FFF3F08000800D601D60A080056
:10111000640080010131890B8928003491106B082B
:101120006C04031908006C088A006B080A008831F7
:101130000800C8305702031CA328D701E801E80AB9
:10114000E701E70A0800D70A08000B1120006E0823
:10115000950069086A04031908006A088A0069088A
:101160000A008831080091112400951F76299513F3
:101170002000D8019E2186008101810ADA01080041
:10118000C81808004708DA004708860087010108E8
:10119000D90047088600413FDB000330C7074708F6
:1011A000633A031DD5286030C7004810470846063B
:1011B0000319C8142400161402302000D8000800B7
:1011C00024009614DC282400161FEA28200004308E
:1011D000CA0A82297A08F2007908F100F236F10C85
:1011E00071089100791CF8280B302000D800080005
:1011F00003302000D80008002400161F0329200017
:101200000430CA0A8229961406307A05F100F038B3
:10121000F900FA0179142000CF01CF0ADC284F032E
:10122000031921295B0886008701403FF900413FEF
:10123000FA005B088600433FD1005B088600423F0E
:10124000D000790824009100791CF828053020008E
:10125000D80008002400161F33292000CA0A2400E1
:101260001613053082292000D003500F3D29043089
:10127000DB07D90BE028003082295108860087015E
:101280000108240091002000D10A08002400161F44
:10129000502920000430CA0A8221240016130800B5
:1012A000961508302000D80008000830D800240027
:1012B0009615080051088600870124001108810056
:1012C0002000D10AD00303196B292400961206309E
:1012D0002000D8006E2924009616932124001616AB
:1012E0000800003082290630CA0A822920005808E6
:1012F00084000C3004020318732987310435BD3E85
:1013000082000800F0002400161520009E2188317C
:10131000031991295A08023E8600010886007008C8
:101320008100D801080004302000DB07D90B9B297D
:101330000430D8000800D801D80A08005A08023E34
:1013400086008701010808008530F3000830F400AA
:10135000632B9930F3000830F400912BC200400851
:10136000BB004108BC004208622289314208860065
:101370008701563FF4004208173EF5004208C02995
:10138000A00074080319E129750886008701010887
:101390000319E12922008E1520006D080319E129A7
:1013A000750886002008F6000108F6027408760722
:1013B000F70086000108E72189317508860087015A
:1013C000810323009E1C080022008E110800F300F8
:1013D0006D080319E8292100111AF2297308230066
:1013E0009A00002A11127808B03E8600870173081F
:1013F0008100F80A083078020318F8012000ED0394
:101400002100111608002A228931252289315F2204
:101410008931122289314F22893140228931812339
:101420008931692B60302000C700C600C8144810FD
:10143000CA012400940128309500970103309200DE
:1014400020009111210091150800683021009900B9
:101450009801080022008C018E013B3021008C0095
:1014600033308E0023008E0103308C003F30240087
:101470008C008E002100951322009E019D01080022
:10148000980199019701960117082100E500E401F0
:10149000200016082100E404200011100800383054
:1014A00020009C00AE309B009A0191102100911405
:1014B0000330F3000030F40063238931BE2A20306A
:1014C00097000800BE0052080319832AA822893118
:1014D0002000BF000030D601C2228931BE228931EE
:1014E0003B08972389313B07BD0086003F088100F8
:1014F0003B08163E8600133001020318832A3B087E
:10150000163E8600810A560B08003B08163E8600F0
:101510000130870004300102031C0800D601C022FC
:101520003B08173E8600013087003B08163E853198
:101530004E25893181003B08B0003C08B1003E08CF
:10154000C5223B08163E8600013087008101080055
:1015500052080319A82A5408A03E860087010108F2
:10156000F300D40A103054020318D4012100911260
:101570002000D20321009116730808001C150800F2
:101580001C110800F3009A000800B400BA013008EA
:1015900097238931F500FE30F601F507FF30F63D5F
:1015A0003008F3000130F400302389317408B300AF
:1015B0007308B2003008972389313007F700FF3EE7
:1015C00086000108B800B901B900B8013008163E1C
:1015D000860001083007F700FE3E86000108B807C4
:1015E0000318B90A39083306031DF82A38083206E9
:1015F000031D0800300886000130870001086F06CF
:1016000003190D2B300886000108031D08008031E6
:10161000CE208931003A031D0800BA0A3A08300783
:10162000F7008600013087000108B500BA0A9D2343
:101630008931B600B701BA0AB700B6019D23B607D3
:101640000318B70A3708A5003608A4003508A60015
:101650003408A7003008A8003108A9008231FF2A09
:10166000FF30A200A3000130F5020030F63B750FF9
:101670003C2B760A03195D2B7308860074088700DB
:1016800001082306A000A101F30A0319F40A2108A6
:10169000850020088400BD3084078530853D000822
:1016A0002206A3002108850020088400BD3084079D
:1016B0008630853D0008A200332B2208F400F30198
:1016C0002308F304080074082000EC007308EB0002
:1016D0000800210091121112083023009F00903061
:1016E0009D0024309E0033309B009C01F8012000B7
:1016F000D5010830ED00D301D401D20121009116AB
:10170000080021001508C03917389500D93020008D
:101710009500EE000B118B168430F3000830F400B6
:10172000912B74082000EA007308E9000800163EB7
:10173000860001308700010808003A083007F700EA
:10174000860001080800B800370886008701010BF1
:10175000D22B370886008101CE01CE0AD22B27304A
:10176000DC01A201A3006430A401A5005C3081313A
:101770004521CE0A08006408031D08000430A200B9
:101780002730A3006430A401A5005C30E1238B3135
:10179000B92B6408031D08005C30A8003808F72343
:1017A0008B31B92B4E08003A0319E02B013A03198B
:1017B000AF2B033A0319BB2B013A0319C92BE02BBA
:1017C0000800A6004818F52B2608F3002208F400AC
:1017D0002408F6002308F500D63041258B31D63099
:1017E000F3002508F4000130602D2508002EB1001B
:1017F000B001AD012808023E860087010108AE0055
:10180000AF01AF00AE012808033E86000108AE0715
:101810000318AF0AAF36AE0CAF36AE0C2E08A000E0
:101820002F08A100A530F9258B311C258B3195257A
:101830008B31A7248B31BF258B310030B307D830D3
:10184000B43DFF30B53DB63DAB258B310B268B311A
:1018500003193C2C30083107A900063ED1258B31F5
:10186000E6248B31E2258B31C8258B31A7248B31BF
:10187000BF258B31B00A492C3208031D452C300896
:10188000EB258B31303081003A2C3208EB258B313F
:1018900081010630B20A3202031C262C2D0B562C75
:1018A0003008EB258B312D308100B00A31082C3EF9
:1018B00005268B31B00128088600870101083F39D1
:1018C000AE00AF01AF00AE01280A86000108AE07E6
:1018D0000318AF0A2E08A0002F08A1006430F925D4
:1018E0008B311C258B3195258B31A7248B31BF255E
:1018F0008B31AB258B310B268B310319912C3008A2
:101900003107A9000E3ED1258B31E6248B31E2252B
:101910008B31C8258B31A7248B31BF258B31B00A81
:101920009E2C3208031D9A2C3008F2258B31303062
:1019300081008F2C3208F2258B3181010630B20AEA
:101940003202031C7B2C31082D3E05260800F301D2
:10195000F401F501F60123082204210420040319EF
:10196000DD2CF701F70AA31BBA2CA035A10DA20D9F
:10197000A30DB22CF335F40DF50DF60D2308270257
:10198000031DCC2C22082602031DCC2C2108250285
:10199000031DCC2C20082402031CD72C2008A402F1
:1019A0002108A53B2208A63B2308A73B7314A336B6
:1019B000A20CA10CA00CF70BBA2C7608A30075089A
:1019C000A2007408A1007308A000080023082204E4
:1019D000210420040319132DF301F30AA31BF52C92
:1019E000A035A10DA20DA30DED2C23082702031D88
:1019F000032D22082602031D032D21082502031DA5
:101A0000032D20082402031C0D2D2008A402210808
:101A1000A53B2208A63B2308A73BA336A20CA10C9A
:101A2000A00CF30BF52C2708A3002608A20025081C
:101A3000A1002408A0000800F301F401F501F6015B
:101A4000201C2A2D2408F3072508F43D2608F53D1F
:101A50002708F63DA435A50DA60DA70DA336A20CAB
:101A6000A10CA00C2308220421042004031D202D16
:101A70007608A3007508A2007408A1007308A000EE
:101A80000800F7007608A1007508A000A035A10D98
:101A90007708860087012008C03F2108C13F7708EA
:101AA00086000130810441317708023E86008701BB
:101AB000740881007708033E8600730881000800DF
:101AC000F5004818842D74088600023087018100D3
:101AD000460A860073088100460886007508810062
:101AE0004608023E8600740881000330C607460897
:101AF000633A031D7D2D6030C600C81047084606B6
:101B0000031D892D4814892D7408860087018101E1
:101B1000810A74088600023087010106031D08004F
:101B20005808031D902D911508002208B6002108C1
:101B3000B5002008B4003F30B301A301A201A10009
:101B4000FF30A0003608A7003508A6003408A5001D
:101B50003308A4000800343086008701403FA90004
:101B6000413FAA00423FAB00AC012C08B6002B0855
:101B7000B5002A08B4002908B300B2010800230800
:101B8000B6002208B5002108B4002008B300080000
:101B90003608A7003508A6003408A5003308A400BD
:101BA00008008600013087000A30A000A101A201D0
:101BB000A3013608A7003508A6003408A50033089D
:101BC000A40008002008303E81000A30A000A101D6
:101BD000A201A30108003107A900063E86000130DA
:101BE000870008003107A9000E3E860001308700FB
:101BF0000800A201A301A400A501A601A7010800F5
:101C0000860087018101810A080086000130870073
:101C10003008810008003608350434043304080015
:020000040001F9
:04000E00E4FFFFDF2D
:00000001FF
