:020000040000FA
:101C40008E308A00332E00308A0020008C01220062
:101C50008C0123008C01210010308C0020000C1A14
:101C600000280C1E312EE327E3272100FB309900CA
:101C700020308E0022008E1120003030980023008A
:101C800090309D000E1226309E00210010308C00F6
:101C900020308E0023009F1523001D1219081908FB
:101CA0002000970196011110BB261814BB261810AE
:101CB0001118512E16082300D0309B002000170861
:101CC000230000309C0023001D16203084000030CB
:101CD0008500CE270F3A031D4C2E0F30BA27F20194
:101CE000CE27840ACE27F20A0F3A03196D2E000878
:101CF000043A0319842E0008053A031D802ECE27CE
:101D0000840A841F722E4C2E21000403A300A30317
:101D10002030840000308500A001A1010008C42605
:101D2000840A04082302031D8E2E20080002840A60
:101D300021080002A001A10120002208840021083E
:101D400023009100040892002630840000308500B2
:101D500020000A30200203184C2E20088207E12EB2
:101D6000E92E082F212F482F7D2F8E2F9E2F000028
:101D700000308A0000286400111808008E1ABC2E5A
:101D80008E1EC02E080021002106A2002008A100FE
:101D90002208A000200E0F39A006200EF039A1065F
:101DA000A00E0310200D0318013EA106E039A10684
:101DB000A00EA0060800E00101050102200E0000AF
:101DC00042010630A500A6012300DB3091008E30D1
:101DD0009200FD26AA27C4260408AA27C4262300A9
:101DE000910A0319920A20000130A502031CA603E0
:101DF00026082504031DE92EA12F2300951715148D
:101E000000000000230014088400130820000800CC
:101E1000FD26C3260408C4262300910A0319920A4A
:101E200011081F39031D082FA62720000130A50225
:101E3000031CA60326082504031D082FA22F202E0D
:101E4000202E23000F309205E03091050E30120253
:101E5000203003191102031C392F103012020030F8
:101E6000031911020318392F230095013D2F202E4D
:101E7000202E230094309500DA2723002030910291
:101E8000031C92032000A50B212F9E2F202E202E15
:101E900023000F309205E03091050E301202203001
:101EA00003191102031C602F1030120200300319B5
:101EB00011020318602F23009501632F202E202E7E
:101EC00023008430950023000008840A93009516AF
:101ED00011081F3A1F39031995120008840A94004B
:101EE000D9272300910A0319920A1F301105031DF7
:101EF000632F2000A50B482F9E2F2300950115145A
:101F00001518802F230013082300910A0319920A41
:101F1000AA27C4262000A50B7D2FA12F840A000824
:101F200023009300230004309500DA279518962F9C
:101F30002300910A2000A50B8E2F9E2F2008AA2790
:101F4000C426A62720000430BA27632E21002008CB
:101F5000AA2721082100A3000F3A0319B72F23084D
:101F6000043A0319B72F2308053A031DB92F05308A
:101F7000BA27230820006400111EBC2F23001D1265
:101F800022008E1523009A0064009E1CFD3322005F
:101F90008E1123001D16210000000800200064009F
:101FA000911ED02F23001908200080000800202E49
:101FB000202E2300640055309600AA309600951418
:101FC000000000000800FF30F000FF30F100F00BCF
:101FD000FE33F10BFC33080022000E11E327220030
:061FE0000E15E327F933A2
:020000040001F9
:02000E00A43F0D
:02001000FF1FD0
:00000001FF
